:100000000C9446000C945D000C945D000C945D0013
:100010000C945D000C945D000C945D000C945D00EC
:100020000C945D000C945D000C945D000C945D00DC
:100030000C945D000C945D000C945D000C945D00CC
:100040000C945D000C945D000C945D000C945D00BC
:100050000C945D000C945D000C945D000C945D00AC
:100060000C945D000C945D000C945D000C945D009C
:100070000C945D000C945D000C945D000C945D008C
:100080000C945D000C945D000C945D0011241FBE67
:10009000CFEFD0E4DEBFCDBF11E0A0E0B1E0E0ECF7
:1000A000F1E000E00BBF02C007900D92AE30B10747
:1000B000D9F70E9488000C94DE000C940000CF93C6
:1000C000DF9300D01F92CDB7DEB789837B836A832D
:1000D00089818A3031F48A819B81BC018DE00E9444
:1000E0005F0080EC90E0FC018081882F90E08072BE
:1000F0009927892BB1F386EC90E02981FC012083BC
:1001000080E090E00F900F900F90DF91CF910895D5
:10011000CF93DF9300D01F92CDB7DEB781E290E09E
:10012000FC01108282E290E02FEFFC01208387E245
:1001300090E02FEFFC01208388E290E0FC01108228
:100140001B8219821A8280E290E0FC0180818095F6
:100150008F708B838B818D3018F08FE389831FC064
:100160008B818A3018F08EE3898319C08B818730A8
:1001700018F08CE3898313C08B81853018F088E3F5
:1001800089830DC08B81833018F080E3898307C099
:100190008B81882319F080E2898301C019828B81C9
:1001A000853018F480E48A8301C01A8288E290E0E6
:1001B00039812A81232BFC012083C5CFF894FFCFFE
:0E01C00000000002000000005F0000000000D0
:00000001FF
