:100000000C945B000C947A000C947A000C947A00A7
:100010000C947A000C947A000C947A000C947A0078
:100020000C947A000C947A000C947A000C947A0068
:100030000C947A000C947A000C947A000C947A0058
:100040000C947A000C947A000C947A000C947A0048
:100050000C947A000C947A000C947A000C947A0038
:100060000C947A000C947A000C947A000C947A0028
:100070000C947A000C947A000C947A000C947A0018
:100080000C947A000C947A000C947A00CD00D40081
:10009000680137013E0145014C0153015A016101DC
:1000A0006F019A01F801EF01A201AD01B801C3018E
:1000B000CE01D901E40111241FBECFEFD0E4DEBF91
:1000C000CDBF11E0A0E0B1E0ECE4F4E000E00BBF54
:1000D00002C007900D92AE30B107D9F721E0AEE033
:1000E000B1E001C01D92A131B207E1F70E94FE010B
:1000F0000C9424020C940000CF93DF9300D01F9245
:10010000CDB7DEB789837B836A8389818A3031F4F6
:100110008A819B81BC018DE00E947C0080EC90E094
:10012000FC018081882F90E080729927892BB1F3A0
:1001300086EC90E02981FC01208380E090E00F9024
:100140000F900F90DF91CF910895CF93DF931F927F
:10015000CDB7DEB780E290E0FC018081882F90E08F
:100160008170992721E0892B09F020E02983809173
:100170000F0190911001CC01A0E0B0E040E050E010
:100180002AE030E0841B950B2817390708F4B7C024
:100190008A5B9F4FFC010C941B0281E090E09093DE
:1001A000100180930F01B0C081E090E090931001A6
:1001B00080930F018981813009F0A3C080910E01E5
:1001C000882339F483E090E09093100180930F012D
:1001D00098C080910E01813039F484E090E09093D2
:1001E000100180930F018DC080910E01823039F48F
:1001F00085E090E09093100180930F0182C0809180
:100200000E01833039F486E090E0909310018093E2
:100210000F0177C080910E01843039F487E090E0BF
:100220009093100180930F016CC080910E01853076
:1002300039F488E090E09093100180930F0161C041
:1002400080910E01863039F489E090E0909310019E
:1002500080930F0156C080910E01873009F051C084
:1002600082E090E09093100180930F014AC08AE0F1
:1002700090E09093100180930F0146C08AE090E0D7
:100280009093100180930F013FC08AE090E090931B
:10029000100180930F0138C08AE090E09093100124
:1002A00080930F0131C08AE090E090931001809319
:1002B0000F012AC08AE090E09093100180930F0113
:1002C00023C08AE090E09093100180930F011CC03E
:1002D0008AE090E09093100180930F0115C08AE0AE
:1002E00090E09093100180930F018981882359F445
:1002F00081E090E09093100180930F0104C0000012
:1003000003C0000001C0000080910F019091100116
:10031000CC01A0E0B0E040E050E029E030E0841BF8
:10032000950B2817390708F461C08F5A9F4FFC01BD
:100330000C941B0210920E0188E290E02FEFFC015A
:10034000208357C080910E018F5F80930E0188E259
:1003500090E021E2FC0120834CC080910E018F5F70
:1003600080930E0188E290E022E1FC01208341C0ED
:1003700080910E018F5F80930E0188E290E02CE067
:10038000FC01208336C080910E018F5F80930E01A7
:1003900088E290E02FE3FC0120832BC080910E01C6
:1003A0008F5F80930E0188E290E025E1FC012083BD
:1003B00020C080910E018F5F80930E0188E290E053
:1003C0002AE2FC01208315C080910E018F5F80938B
:1003D0000E0188E290E025E1FC0120830AC0109222
:1003E0000E0188E290E0FC01108203C0000001C011
:1003F000000000000F90DF91CF910895CF93DF931D
:10040000CDB7DEB781E290E0FC01108282E290E09D
:100410002FEFFC01208387E290E02FEFFC01208387
:1004200088E290E0FC0110821092100110920F01FE
:100430000E94A500FDCFEE0FFF1F0024001C0BBE85
:0C0440000790F691E02D0994F894FFCF8E
:0E044C0000000002000000007C000000000024
:00000001FF
